{
  "_format": "hh-sol-artifact-1",
  "contractName": "Payment",
  "sourceName": "contracts/payment.sol",
  "abi": [
    {
      "inputs": [
        {
          "internalType": "string",
          "name": "name",
          "type": "string"
        },
        {
          "internalType": "string",
          "name": "symbol",
          "type": "string"
        }
      ],
      "stateMutability": "nonpayable",
      "type": "constructor"
    },
    {
      "anonymous": false,
      "inputs": [
        {
          "indexed": true,
          "internalType": "address",
          "name": "owner",
          "type": "address"
        },
        {
          "indexed": true,
          "internalType": "address",
          "name": "approved",
          "type": "address"
        },
        {
          "indexed": true,
          "internalType": "uint256",
          "name": "tokenId",
          "type": "uint256"
        }
      ],
      "name": "Approval",
      "type": "event"
    },
    {
      "anonymous": false,
      "inputs": [
        {
          "indexed": true,
          "internalType": "address",
          "name": "owner",
          "type": "address"
        },
        {
          "indexed": true,
          "internalType": "address",
          "name": "operator",
          "type": "address"
        },
        {
          "indexed": false,
          "internalType": "bool",
          "name": "approved",
          "type": "bool"
        }
      ],
      "name": "ApprovalForAll",
      "type": "event"
    },
    {
      "anonymous": false,
      "inputs": [
        {
          "indexed": true,
          "internalType": "address",
          "name": "previousOwner",
          "type": "address"
        }
      ],
      "name": "OwnershipRenounced",
      "type": "event"
    },
    {
      "anonymous": false,
      "inputs": [
        {
          "indexed": true,
          "internalType": "address",
          "name": "previousOwner",
          "type": "address"
        },
        {
          "indexed": true,
          "internalType": "address",
          "name": "newOwner",
          "type": "address"
        }
      ],
      "name": "OwnershipTransferred",
      "type": "event"
    },
    {
      "anonymous": false,
      "inputs": [
        {
          "indexed": true,
          "internalType": "address",
          "name": "from",
          "type": "address"
        },
        {
          "indexed": true,
          "internalType": "address",
          "name": "to",
          "type": "address"
        },
        {
          "indexed": true,
          "internalType": "uint256",
          "name": "tokenId",
          "type": "uint256"
        }
      ],
      "name": "Transfer",
      "type": "event"
    },
    {
      "inputs": [],
      "name": "PayAll",
      "outputs": [],
      "stateMutability": "payable",
      "type": "function"
    },
    {
      "inputs": [
        {
          "internalType": "address",
          "name": "to",
          "type": "address"
        },
        {
          "internalType": "uint256",
          "name": "tokenId",
          "type": "uint256"
        }
      ],
      "name": "approve",
      "outputs": [],
      "stateMutability": "nonpayable",
      "type": "function"
    },
    {
      "inputs": [
        {
          "internalType": "address",
          "name": "owner",
          "type": "address"
        }
      ],
      "name": "balanceOf",
      "outputs": [
        {
          "internalType": "uint256",
          "name": "",
          "type": "uint256"
        }
      ],
      "stateMutability": "view",
      "type": "function"
    },
    {
      "inputs": [],
      "name": "baseURI",
      "outputs": [
        {
          "internalType": "string",
          "name": "",
          "type": "string"
        }
      ],
      "stateMutability": "view",
      "type": "function"
    },
    {
      "inputs": [
        {
          "internalType": "uint256",
          "name": "tokenId",
          "type": "uint256"
        }
      ],
      "name": "getApproved",
      "outputs": [
        {
          "internalType": "address",
          "name": "",
          "type": "address"
        }
      ],
      "stateMutability": "view",
      "type": "function"
    },
    {
      "inputs": [
        {
          "internalType": "address",
          "name": "_tokenAddress",
          "type": "address"
        }
      ],
      "name": "getBalance",
      "outputs": [
        {
          "internalType": "uint256",
          "name": "",
          "type": "uint256"
        }
      ],
      "stateMutability": "view",
      "type": "function"
    },
    {
      "inputs": [
        {
          "internalType": "address",
          "name": "owner",
          "type": "address"
        },
        {
          "internalType": "address",
          "name": "operator",
          "type": "address"
        }
      ],
      "name": "isApprovedForAll",
      "outputs": [
        {
          "internalType": "bool",
          "name": "",
          "type": "bool"
        }
      ],
      "stateMutability": "view",
      "type": "function"
    },
    {
      "inputs": [],
      "name": "name",
      "outputs": [
        {
          "internalType": "string",
          "name": "",
          "type": "string"
        }
      ],
      "stateMutability": "view",
      "type": "function"
    },
    {
      "inputs": [],
      "name": "owner",
      "outputs": [
        {
          "internalType": "address",
          "name": "",
          "type": "address"
        }
      ],
      "stateMutability": "view",
      "type": "function"
    },
    {
      "inputs": [
        {
          "internalType": "uint256",
          "name": "tokenId",
          "type": "uint256"
        }
      ],
      "name": "ownerOf",
      "outputs": [
        {
          "internalType": "address",
          "name": "",
          "type": "address"
        }
      ],
      "stateMutability": "view",
      "type": "function"
    },
    {
      "inputs": [],
      "name": "renounceOwnership",
      "outputs": [],
      "stateMutability": "nonpayable",
      "type": "function"
    },
    {
      "inputs": [
        {
          "internalType": "address",
          "name": "from",
          "type": "address"
        },
        {
          "internalType": "address",
          "name": "to",
          "type": "address"
        },
        {
          "internalType": "uint256",
          "name": "tokenId",
          "type": "uint256"
        }
      ],
      "name": "safeTransferFrom",
      "outputs": [],
      "stateMutability": "nonpayable",
      "type": "function"
    },
    {
      "inputs": [
        {
          "internalType": "address",
          "name": "from",
          "type": "address"
        },
        {
          "internalType": "address",
          "name": "to",
          "type": "address"
        },
        {
          "internalType": "uint256",
          "name": "tokenId",
          "type": "uint256"
        },
        {
          "internalType": "bytes",
          "name": "_data",
          "type": "bytes"
        }
      ],
      "name": "safeTransferFrom",
      "outputs": [],
      "stateMutability": "nonpayable",
      "type": "function"
    },
    {
      "inputs": [
        {
          "internalType": "address",
          "name": "operator",
          "type": "address"
        },
        {
          "internalType": "bool",
          "name": "approved",
          "type": "bool"
        }
      ],
      "name": "setApprovalForAll",
      "outputs": [],
      "stateMutability": "nonpayable",
      "type": "function"
    },
    {
      "inputs": [
        {
          "internalType": "bytes4",
          "name": "interfaceId",
          "type": "bytes4"
        }
      ],
      "name": "supportsInterface",
      "outputs": [
        {
          "internalType": "bool",
          "name": "",
          "type": "bool"
        }
      ],
      "stateMutability": "view",
      "type": "function"
    },
    {
      "inputs": [],
      "name": "symbol",
      "outputs": [
        {
          "internalType": "string",
          "name": "",
          "type": "string"
        }
      ],
      "stateMutability": "view",
      "type": "function"
    },
    {
      "inputs": [
        {
          "internalType": "uint256",
          "name": "index",
          "type": "uint256"
        }
      ],
      "name": "tokenByIndex",
      "outputs": [
        {
          "internalType": "uint256",
          "name": "",
          "type": "uint256"
        }
      ],
      "stateMutability": "view",
      "type": "function"
    },
    {
      "inputs": [
        {
          "internalType": "address",
          "name": "owner",
          "type": "address"
        },
        {
          "internalType": "uint256",
          "name": "index",
          "type": "uint256"
        }
      ],
      "name": "tokenOfOwnerByIndex",
      "outputs": [
        {
          "internalType": "uint256",
          "name": "",
          "type": "uint256"
        }
      ],
      "stateMutability": "view",
      "type": "function"
    },
    {
      "inputs": [
        {
          "internalType": "uint256",
          "name": "tokenId",
          "type": "uint256"
        }
      ],
      "name": "tokenURI",
      "outputs": [
        {
          "internalType": "string",
          "name": "",
          "type": "string"
        }
      ],
      "stateMutability": "view",
      "type": "function"
    },
    {
      "inputs": [],
      "name": "totalSupply",
      "outputs": [
        {
          "internalType": "uint256",
          "name": "",
          "type": "uint256"
        }
      ],
      "stateMutability": "view",
      "type": "function"
    },
    {
      "inputs": [
        {
          "internalType": "address",
          "name": "from",
          "type": "address"
        },
        {
          "internalType": "address",
          "name": "to",
          "type": "address"
        },
        {
          "internalType": "uint256",
          "name": "tokenId",
          "type": "uint256"
        }
      ],
      "name": "transferFrom",
      "outputs": [],
      "stateMutability": "nonpayable",
      "type": "function"
    },
    {
      "inputs": [
        {
          "internalType": "address",
          "name": "newOwner",
          "type": "address"
        }
      ],
      "name": "transferOwnership",
      "outputs": [],
      "stateMutability": "nonpayable",
      "type": "function"
    },
    {
      "inputs": [
        {
          "internalType": "address",
          "name": "_tokenAddress",
          "type": "address"
        }
      ],
      "name": "withdraw",
      "outputs": [],
      "stateMutability": "nonpayable",
      "type": "function"
    }
  ],
  "bytecode": "0x60c06040527fdf1742fe5b0bfc12331d8eaec6b478dfdbd314640000000000000000000000006080527fa2025b15a1757311bfd68cb14eaefcc237af5b4300000000000000000000000060a052600b80546001600160a01b031990811673f2a7c8163b88ff79727351ec1310abd37dcc13f617909155600c805490911673af1d6b65d868a040ec8f544b31d6a8e2efdbdc42179055348015620000a157600080fd5b50604051620022c2380380620022c283398181016040526040811015620000c757600080fd5b8101908080516040519392919084640100000000821115620000e857600080fd5b908301906020820185811115620000fe57600080fd5b82516401000000008111828201881017156200011957600080fd5b82525081516020918201929091019080838360005b83811015620001485781810151838201526020016200012e565b50505050905090810190601f168015620001765780820380516001836020036101000a031916815260200191505b50604052602001805160405193929190846401000000008211156200019a57600080fd5b908301906020820185811115620001b057600080fd5b8251640100000000811182820188101715620001cb57600080fd5b82525081516020918201929091019080838360005b83811015620001fa578181015183820152602001620001e0565b50505050905090810190601f168015620002285780820380516001836020036101000a031916815260200191505b5060405250839150829050620002456301ffc9a760e01b620002c4565b81516200025a90600690602085019062000349565b5080516200027090600790602084019062000349565b50620002836380ac58cd60e01b620002c4565b62000295635b5e139f60e01b620002c4565b620002a763780e9d6360e01b620002c4565b5050600a80546001600160a01b0319163317905550620003f59050565b6001600160e01b0319808216141562000324576040805162461bcd60e51b815260206004820152601c60248201527f4552433136353a20696e76616c696420696e7465726661636520696400000000604482015290519081900360640190fd5b6001600160e01b0319166000908152602081905260409020805460ff19166001179055565b828054600181600116156101000203166002900490600052602060002090601f016020900481019282620003815760008555620003cc565b82601f106200039c57805160ff1916838001178555620003cc565b82800160010185558215620003cc579182015b82811115620003cc578251825591602001919060010190620003af565b50620003da929150620003de565b5090565b5b80821115620003da5760008155600101620003df565b60805160601c60a05160601c611ead620004156000395050611ead6000f3fe6080604052600436106101405760003560e01c80636352211e116100b6578063a22cb4651161006f578063a22cb46514610494578063b88d4fde146104cf578063c87b56dd146105a2578063e985e9c5146105cc578063f2fde38b14610607578063f8b2cb4f1461063a57610140565b80636352211e146103e35780636c0360eb1461040d57806370a0823114610422578063715018a6146104555780638da5cb5b1461046a57806395d89b411461047f57610140565b806323b872dd1161010857806323b872dd146102bf5780632f745c59146103025780633dc05a171461033b57806342842e0e146103435780634f6ccce71461038657806351cff8d9146103b057610140565b806301ffc9a71461014557806306fdde031461018d578063081812fc14610217578063095ea7b31461025d57806318160ddd14610298575b600080fd5b34801561015157600080fd5b506101796004803603602081101561016857600080fd5b50356001600160e01b03191661066d565b604080519115158252519081900360200190f35b34801561019957600080fd5b506101a2610690565b6040805160208082528351818301528351919283929083019185019080838360005b838110156101dc5781810151838201526020016101c4565b50505050905090810190601f1680156102095780820380516001836020036101000a031916815260200191505b509250505060405180910390f35b34801561022357600080fd5b506102416004803603602081101561023a57600080fd5b5035610726565b604080516001600160a01b039092168252519081900360200190f35b34801561026957600080fd5b506102966004803603604081101561028057600080fd5b506001600160a01b038135169060200135610788565b005b3480156102a457600080fd5b506102ad610863565b60408051918252519081900360200190f35b3480156102cb57600080fd5b50610296600480360360608110156102e257600080fd5b506001600160a01b03813581169160208101359091169060400135610874565b34801561030e57600080fd5b506102ad6004803603604081101561032557600080fd5b506001600160a01b0381351690602001356108cb565b6102966108f6565b34801561034f57600080fd5b506102966004803603606081101561036657600080fd5b506001600160a01b038135811691602081013590911690604001356109b1565b34801561039257600080fd5b506102ad600480360360208110156103a957600080fd5b50356109cc565b3480156103bc57600080fd5b50610296600480360360208110156103d357600080fd5b50356001600160a01b03166109e2565b3480156103ef57600080fd5b506102416004803603602081101561040657600080fd5b5035610af6565b34801561041957600080fd5b506101a2610b1e565b34801561042e57600080fd5b506102ad6004803603602081101561044557600080fd5b50356001600160a01b0316610b7f565b34801561046157600080fd5b50610296610be7565b34801561047657600080fd5b50610241610c48565b34801561048b57600080fd5b506101a2610c57565b3480156104a057600080fd5b50610296600480360360408110156104b757600080fd5b506001600160a01b0381351690602001351515610cb8565b3480156104db57600080fd5b50610296600480360360808110156104f257600080fd5b6001600160a01b0382358116926020810135909116916040820135919081019060808101606082013564010000000081111561052d57600080fd5b82018360208201111561053f57600080fd5b8035906020019184600183028401116401000000008311171561056157600080fd5b91908080601f016020809104026020016040519081016040528093929190818152602001838380828437600092019190915250929550610dbd945050505050565b3480156105ae57600080fd5b506101a2600480360360208110156105c557600080fd5b5035610e15565b3480156105d857600080fd5b50610179600480360360408110156105ef57600080fd5b506001600160a01b0381358116916020013516611096565b34801561061357600080fd5b506102966004803603602081101561062a57600080fd5b50356001600160a01b03166110c4565b34801561064657600080fd5b506102ad6004803603602081101561065d57600080fd5b50356001600160a01b031661114a565b6001600160e01b0319811660009081526020819052604090205460ff165b919050565b60068054604080516020601f600260001961010060018816150201909516949094049384018190048102820181019092528281526060939092909183018282801561071c5780601f106106f15761010080835404028352916020019161071c565b820191906000526020600020905b8154815290600101906020018083116106ff57829003601f168201915b5050505050905090565b6000610731826111cb565b61076c5760405162461bcd60e51b815260040180806020018281038252602c815260200180611da2602c913960400191505060405180910390fd5b506000908152600460205260409020546001600160a01b031690565b600061079382610af6565b9050806001600160a01b0316836001600160a01b031614156107e65760405162461bcd60e51b8152600401808060200182810382526021815260200180611e266021913960400191505060405180910390fd5b806001600160a01b03166107f86111d8565b6001600160a01b031614806108195750610819816108146111d8565b611096565b6108545760405162461bcd60e51b8152600401808060200182810382526038815260200180611cf56038913960400191505060405180910390fd5b61085e83836111dc565b505050565b600061086f600261124a565b905090565b61088561087f6111d8565b82611255565b6108c05760405162461bcd60e51b8152600401808060200182810382526031815260200180611e476031913960400191505060405180910390fd5b61085e8383836112f9565b6001600160a01b03821660009081526001602052604081206108ed9083611445565b90505b92915050565b600a546001600160a01b0316331461090d57600080fd5b600c54604051479160646032840204916000916001600160a01b03169083908381818185875af1925050503d8060008114610964576040519150601f19603f3d011682016040523d82523d6000602084013e610969565b606091505b505090508061085e576040805162461bcd60e51b815260206004820152600f60248201526e151c985b9cd9995c8811985a5b1959608a1b604482015290519081900360640190fd5b61085e83838360405180602001604052806000815250610dbd565b6000806109da600284611451565b509392505050565b600a546001600160a01b031633146109f957600080fd5b604080516370a0823160e01b8152306004820152905182916001600160a01b0383169163a9059cbb91339184916370a08231916024808301926020929190829003018186803b158015610a4b57600080fd5b505afa158015610a5f573d6000803e3d6000fd5b505050506040513d6020811015610a7557600080fd5b5051604080516001600160e01b031960e086901b1681526001600160a01b03909316600484015260248301919091525160448083019260209291908290030181600087803b158015610ac657600080fd5b505af1158015610ada573d6000803e3d6000fd5b505050506040513d6020811015610af057600080fd5b50505050565b60006108f082604051806060016040528060298152602001611d57602991396002919061146d565b60098054604080516020601f600260001961010060018816150201909516949094049384018190048102820181019092528281526060939092909183018282801561071c5780601f106106f15761010080835404028352916020019161071c565b60006001600160a01b038216610bc65760405162461bcd60e51b815260040180806020018281038252602a815260200180611d2d602a913960400191505060405180910390fd5b6001600160a01b03821660009081526001602052604090206108f09061124a565b600a546001600160a01b03163314610bfe57600080fd5b600a546040516001600160a01b03909116907ff8df31144d9c2f0f6b59d69b8b98abd5459d07f2742c4df920b25aae33c6482090600090a2600a80546001600160a01b0319169055565b600a546001600160a01b031681565b60078054604080516020601f600260001961010060018816150201909516949094049384018190048102820181019092528281526060939092909183018282801561071c5780601f106106f15761010080835404028352916020019161071c565b610cc06111d8565b6001600160a01b0316826001600160a01b03161415610d26576040805162461bcd60e51b815260206004820152601960248201527f4552433732313a20617070726f766520746f2063616c6c657200000000000000604482015290519081900360640190fd5b8060056000610d336111d8565b6001600160a01b03908116825260208083019390935260409182016000908120918716808252919093529120805460ff191692151592909217909155610d776111d8565b6001600160a01b03167f17307eab39ab6107e8899845ad3d59bd9653f200f220920489ca2b5937696c318360405180821515815260200191505060405180910390a35050565b610dce610dc86111d8565b83611255565b610e095760405162461bcd60e51b8152600401808060200182810382526031815260200180611e476031913960400191505060405180910390fd5b610af084848484611484565b6060610e20826111cb565b610e5b5760405162461bcd60e51b815260040180806020018281038252602f815260200180611df7602f913960400191505060405180910390fd5b60008281526008602090815260408083208054825160026001831615610100026000190190921691909104601f810185900485028201850190935282815292909190830182828015610eee5780601f10610ec357610100808354040283529160200191610eee565b820191906000526020600020905b815481529060010190602001808311610ed157829003601f168201915b505050505090506000610eff610b1e565b9050805160001415610f135750905061068b565b815115610fd45780826040516020018083805190602001908083835b60208310610f4e5780518252601f199092019160209182019101610f2f565b51815160209384036101000a600019018019909216911617905285519190930192850191508083835b60208310610f965780518252601f199092019160209182019101610f77565b6001836020036101000a038019825116818451168082178552505050505050905001925050506040516020818303038152906040529250505061068b565b80610fde856114d6565b6040516020018083805190602001908083835b602083106110105780518252601f199092019160209182019101610ff1565b51815160209384036101000a600019018019909216911617905285519190930192850191508083835b602083106110585780518252601f199092019160209182019101611039565b6001836020036101000a0380198251168184511680821785525050505050509050019250505060405160208183030381529060405292505050919050565b6001600160a01b03918216600090815260056020908152604080832093909416825291909152205460ff1690565b600a546001600160a01b031633146110db57600080fd5b6001600160a01b0381166110ee57600080fd5b600a546040516001600160a01b038084169216907f8be0079c531659141344cd1fd0a4f28419497f9722a3daafe3b4186f6b6457e090600090a3600a80546001600160a01b0319166001600160a01b0392909216919091179055565b6000816001600160a01b03166370a08231306040518263ffffffff1660e01b815260040180826001600160a01b0316815260200191505060206040518083038186803b15801561119957600080fd5b505afa1580156111ad573d6000803e3d6000fd5b505050506040513d60208110156111c357600080fd5b505192915050565b60006108f06002836115b1565b3390565b600081815260046020526040902080546001600160a01b0319166001600160a01b038416908117909155819061121182610af6565b6001600160a01b03167f8c5be1e5ebec7d5bd14f71427d1e84f3dd0314c0f7b2291e5b200ac8c7c3b92560405160405180910390a45050565b60006108f0826115bd565b6000611260826111cb565b61129b5760405162461bcd60e51b815260040180806020018281038252602c815260200180611cc9602c913960400191505060405180910390fd5b60006112a683610af6565b9050806001600160a01b0316846001600160a01b031614806112e15750836001600160a01b03166112d684610726565b6001600160a01b0316145b806112f157506112f18185611096565b949350505050565b826001600160a01b031661130c82610af6565b6001600160a01b0316146113515760405162461bcd60e51b8152600401808060200182810382526029815260200180611dce6029913960400191505060405180910390fd5b6001600160a01b0382166113965760405162461bcd60e51b8152600401808060200182810382526024815260200180611ca56024913960400191505060405180910390fd5b6113a183838361085e565b6113ac6000826111dc565b6001600160a01b03831660009081526001602052604090206113ce90826115c1565b506001600160a01b03821660009081526001602052604090206113f190826115cd565b506113fe600282846115d9565b5080826001600160a01b0316846001600160a01b03167fddf252ad1be2c89b69c2b068fc378daa952ba7f163c4a11628f55a4df523b3ef60405160405180910390a4505050565b60006108ed83836115ef565b60008080806114608686611653565b9097909650945050505050565b600061147a8484846116ce565b90505b9392505050565b61148f8484846112f9565b61149b84848484611798565b610af05760405162461bcd60e51b8152600401808060200182810382526032815260200180611c736032913960400191505060405180910390fd5b6060816114fb57506040805180820190915260018152600360fc1b602082015261068b565b8160005b811561151357600101600a820491506114ff565b60008167ffffffffffffffff8111801561152c57600080fd5b506040519080825280601f01601f191660200182016040528015611557576020820181803683370190505b50859350905060001982015b83156115a857600a840660300160f81b8282806001900393508151811061158657fe5b60200101906001600160f81b031916908160001a905350600a84049350611563565b50949350505050565b60006108ed8383611900565b5490565b60006108ed8383611918565b60006108ed83836119de565b600061147a84846001600160a01b038516611a28565b815460009082106116315760405162461bcd60e51b8152600401808060200182810382526022815260200180611c516022913960400191505060405180910390fd5b82600001828154811061164057fe5b9060005260206000200154905092915050565b8154600090819083106116975760405162461bcd60e51b8152600401808060200182810382526022815260200180611d806022913960400191505060405180910390fd5b60008460000184815481106116a857fe5b906000526020600020906002020190508060000154816001015492509250509250929050565b600082815260018401602052604081205482816117695760405162461bcd60e51b81526004018080602001828103825283818151815260200191508051906020019080838360005b8381101561172e578181015183820152602001611716565b50505050905090810190601f16801561175b5780820380516001836020036101000a031916815260200191505b509250505060405180910390fd5b5084600001600182038154811061177c57fe5b9060005260206000209060020201600101549150509392505050565b60006117ac846001600160a01b0316611abf565b6117b8575060016112f1565b60006118c6630a85bd0160e11b6117cd6111d8565b88878760405160240180856001600160a01b03168152602001846001600160a01b0316815260200183815260200180602001828103825283818151815260200191508051906020019080838360005b8381101561183457818101518382015260200161181c565b50505050905090810190601f1680156118615780820380516001836020036101000a031916815260200191505b5095505050505050604051602081830303815290604052906001600160e01b0319166020820180516001600160e01b038381831617835250505050604051806060016040528060328152602001611c73603291396001600160a01b0388169190611ac5565b905060008180602001905160208110156118df57600080fd5b50516001600160e01b031916630a85bd0160e11b1492505050949350505050565b60009081526001919091016020526040902054151590565b600081815260018301602052604081205480156119d4578354600019808301919081019060009087908390811061194b57fe5b906000526020600020015490508087600001848154811061196857fe5b60009182526020808320909101929092558281526001898101909252604090209084019055865487908061199857fe5b600190038181906000526020600020016000905590558660010160008781526020019081526020016000206000905560019450505050506108f0565b60009150506108f0565b60006119ea8383611900565b611a20575081546001818101845560008481526020808220909301849055845484825282860190935260409020919091556108f0565b5060006108f0565b600082815260018401602052604081205480611a8d57505060408051808201825283815260208082018481528654600181810189556000898152848120955160029093029095019182559151908201558654868452818801909252929091205561147d565b82856000016001830381548110611aa057fe5b906000526020600020906002020160010181905550600091505061147d565b3b151590565b606061147a848460008585611ad985611abf565b611b2a576040805162461bcd60e51b815260206004820152601d60248201527f416464726573733a2063616c6c20746f206e6f6e2d636f6e7472616374000000604482015290519081900360640190fd5b600080866001600160a01b031685876040518082805190602001908083835b60208310611b685780518252601f199092019160209182019101611b49565b6001836020036101000a03801982511681845116808217855250505050505090500191505060006040518083038185875af1925050503d8060008114611bca576040519150601f19603f3d011682016040523d82523d6000602084013e611bcf565b606091505b5091509150611bdf828286611bea565b979650505050505050565b60608315611bf957508161147d565b825115611c095782518084602001fd5b60405162461bcd60e51b815260206004820181815284516024840152845185939192839260440191908501908083836000831561172e57818101518382015260200161171656fe456e756d657261626c655365743a20696e646578206f7574206f6620626f756e64734552433732313a207472616e7366657220746f206e6f6e20455243373231526563656976657220696d706c656d656e7465724552433732313a207472616e7366657220746f20746865207a65726f20616464726573734552433732313a206f70657261746f7220717565727920666f72206e6f6e6578697374656e7420746f6b656e4552433732313a20617070726f76652063616c6c6572206973206e6f74206f776e6572206e6f7220617070726f76656420666f7220616c6c4552433732313a2062616c616e636520717565727920666f7220746865207a65726f20616464726573734552433732313a206f776e657220717565727920666f72206e6f6e6578697374656e7420746f6b656e456e756d657261626c654d61703a20696e646578206f7574206f6620626f756e64734552433732313a20617070726f76656420717565727920666f72206e6f6e6578697374656e7420746f6b656e4552433732313a207472616e73666572206f6620746f6b656e2074686174206973206e6f74206f776e4552433732314d657461646174613a2055524920717565727920666f72206e6f6e6578697374656e7420746f6b656e4552433732313a20617070726f76616c20746f2063757272656e74206f776e65724552433732313a207472616e736665722063616c6c6572206973206e6f74206f776e6572206e6f7220617070726f766564a264697066735822122078785ea399e5222cbe965f2391bcab7d6375244f1a216849b6510c4236a1a36064736f6c63430007060033",
  "linkReferences": {},
  "deployedLinkReferences": {}
}