{
  "_format": "hh-sol-artifact-1",
  "contractName": "IERC20",
  "sourceName": "contracts/IERC20.sol",
  "abi": [
    {
      "inputs": [
        {
          "internalType": "string",
          "name": "_name",
          "type": "string"
        },
        {
          "internalType": "string",
          "name": "_symbol",
          "type": "string"
        },
        {
          "internalType": "uint8",
          "name": "_decimals",
          "type": "uint8"
        }
      ],
      "stateMutability": "nonpayable",
      "type": "constructor"
    },
    {
      "anonymous": false,
      "inputs": [
        {
          "indexed": true,
          "internalType": "address",
          "name": "owner",
          "type": "address"
        },
        {
          "indexed": true,
          "internalType": "address",
          "name": "spender",
          "type": "address"
        },
        {
          "indexed": false,
          "internalType": "uint256",
          "name": "value",
          "type": "uint256"
        }
      ],
      "name": "Approval",
      "type": "event"
    },
    {
      "anonymous": false,
      "inputs": [
        {
          "indexed": true,
          "internalType": "address",
          "name": "previousOwner",
          "type": "address"
        }
      ],
      "name": "OwnershipRenounced",
      "type": "event"
    },
    {
      "anonymous": false,
      "inputs": [
        {
          "indexed": true,
          "internalType": "address",
          "name": "previousOwner",
          "type": "address"
        },
        {
          "indexed": true,
          "internalType": "address",
          "name": "newOwner",
          "type": "address"
        }
      ],
      "name": "OwnershipTransferred",
      "type": "event"
    },
    {
      "anonymous": false,
      "inputs": [
        {
          "indexed": true,
          "internalType": "address",
          "name": "from",
          "type": "address"
        },
        {
          "indexed": true,
          "internalType": "address",
          "name": "to",
          "type": "address"
        },
        {
          "indexed": false,
          "internalType": "uint256",
          "name": "value",
          "type": "uint256"
        }
      ],
      "name": "Transfer",
      "type": "event"
    },
    {
      "inputs": [
        {
          "internalType": "address",
          "name": "account",
          "type": "address"
        },
        {
          "internalType": "address",
          "name": "spender",
          "type": "address"
        }
      ],
      "name": "allowance",
      "outputs": [
        {
          "internalType": "uint256",
          "name": "",
          "type": "uint256"
        }
      ],
      "stateMutability": "view",
      "type": "function"
    },
    {
      "inputs": [
        {
          "internalType": "address",
          "name": "spender",
          "type": "address"
        },
        {
          "internalType": "uint256",
          "name": "amount",
          "type": "uint256"
        }
      ],
      "name": "approve",
      "outputs": [
        {
          "internalType": "bool",
          "name": "",
          "type": "bool"
        }
      ],
      "stateMutability": "nonpayable",
      "type": "function"
    },
    {
      "inputs": [
        {
          "internalType": "address",
          "name": "account",
          "type": "address"
        }
      ],
      "name": "balanceOf",
      "outputs": [
        {
          "internalType": "uint256",
          "name": "",
          "type": "uint256"
        }
      ],
      "stateMutability": "view",
      "type": "function"
    },
    {
      "inputs": [
        {
          "internalType": "address",
          "name": "account",
          "type": "address"
        },
        {
          "internalType": "uint256",
          "name": "amount",
          "type": "uint256"
        }
      ],
      "name": "burnFrom",
      "outputs": [],
      "stateMutability": "nonpayable",
      "type": "function"
    },
    {
      "inputs": [],
      "name": "decimals",
      "outputs": [
        {
          "internalType": "uint8",
          "name": "",
          "type": "uint8"
        }
      ],
      "stateMutability": "view",
      "type": "function"
    },
    {
      "inputs": [
        {
          "internalType": "address",
          "name": "spender",
          "type": "address"
        },
        {
          "internalType": "uint256",
          "name": "subtractedValue",
          "type": "uint256"
        }
      ],
      "name": "decreaseAllowance",
      "outputs": [
        {
          "internalType": "bool",
          "name": "",
          "type": "bool"
        }
      ],
      "stateMutability": "nonpayable",
      "type": "function"
    },
    {
      "inputs": [],
      "name": "getOwner",
      "outputs": [
        {
          "internalType": "address",
          "name": "",
          "type": "address"
        }
      ],
      "stateMutability": "view",
      "type": "function"
    },
    {
      "inputs": [
        {
          "internalType": "address",
          "name": "spender",
          "type": "address"
        },
        {
          "internalType": "uint256",
          "name": "addedValue",
          "type": "uint256"
        }
      ],
      "name": "increaseAllowance",
      "outputs": [
        {
          "internalType": "bool",
          "name": "",
          "type": "bool"
        }
      ],
      "stateMutability": "nonpayable",
      "type": "function"
    },
    {
      "inputs": [],
      "name": "isBridgeToken",
      "outputs": [
        {
          "internalType": "bool",
          "name": "",
          "type": "bool"
        }
      ],
      "stateMutability": "view",
      "type": "function"
    },
    {
      "inputs": [
        {
          "internalType": "uint256",
          "name": "amount",
          "type": "uint256"
        }
      ],
      "name": "mint",
      "outputs": [
        {
          "internalType": "bool",
          "name": "",
          "type": "bool"
        }
      ],
      "stateMutability": "nonpayable",
      "type": "function"
    },
    {
      "inputs": [
        {
          "internalType": "address",
          "name": "account",
          "type": "address"
        },
        {
          "internalType": "uint256",
          "name": "amount",
          "type": "uint256"
        }
      ],
      "name": "mintTo",
      "outputs": [],
      "stateMutability": "nonpayable",
      "type": "function"
    },
    {
      "inputs": [],
      "name": "name",
      "outputs": [
        {
          "internalType": "string",
          "name": "",
          "type": "string"
        }
      ],
      "stateMutability": "view",
      "type": "function"
    },
    {
      "inputs": [],
      "name": "owner",
      "outputs": [
        {
          "internalType": "address",
          "name": "",
          "type": "address"
        }
      ],
      "stateMutability": "view",
      "type": "function"
    },
    {
      "inputs": [],
      "name": "renounceOwnership",
      "outputs": [],
      "stateMutability": "nonpayable",
      "type": "function"
    },
    {
      "inputs": [],
      "name": "symbol",
      "outputs": [
        {
          "internalType": "string",
          "name": "",
          "type": "string"
        }
      ],
      "stateMutability": "view",
      "type": "function"
    },
    {
      "inputs": [],
      "name": "totalSupply",
      "outputs": [
        {
          "internalType": "uint256",
          "name": "",
          "type": "uint256"
        }
      ],
      "stateMutability": "view",
      "type": "function"
    },
    {
      "inputs": [
        {
          "internalType": "address",
          "name": "recipient",
          "type": "address"
        },
        {
          "internalType": "uint256",
          "name": "amount",
          "type": "uint256"
        }
      ],
      "name": "transfer",
      "outputs": [
        {
          "internalType": "bool",
          "name": "",
          "type": "bool"
        }
      ],
      "stateMutability": "nonpayable",
      "type": "function"
    },
    {
      "inputs": [
        {
          "internalType": "address",
          "name": "sender",
          "type": "address"
        },
        {
          "internalType": "address",
          "name": "recipient",
          "type": "address"
        },
        {
          "internalType": "uint256",
          "name": "amount",
          "type": "uint256"
        }
      ],
      "name": "transferFrom",
      "outputs": [
        {
          "internalType": "bool",
          "name": "",
          "type": "bool"
        }
      ],
      "stateMutability": "nonpayable",
      "type": "function"
    },
    {
      "inputs": [
        {
          "internalType": "address",
          "name": "newOwner",
          "type": "address"
        }
      ],
      "name": "transferOwnership",
      "outputs": [],
      "stateMutability": "nonpayable",
      "type": "function"
    }
  ],
  "bytecode": "0x60806040526006805461ff0019166101001790553480156200002057600080fd5b506040516200119b3803806200119b833981810160405260608110156200004657600080fd5b81019080805160405193929190846401000000008211156200006757600080fd5b9083019060208201858111156200007d57600080fd5b82516401000000008111828201881017156200009857600080fd5b82525081516020918201929091019080838360005b83811015620000c7578181015183820152602001620000ad565b50505050905090810190601f168015620000f55780820380516001836020036101000a031916815260200191505b50604052602001805160405193929190846401000000008211156200011957600080fd5b9083019060208201858111156200012f57600080fd5b82516401000000008111828201881017156200014a57600080fd5b82525081516020918201929091019080838360005b83811015620001795781810151838201526020016200015f565b50505050905090810190601f168015620001a75780820380516001836020036101000a031916815260200191505b50604052602090810151600080546001600160a01b031916331790558551909350620001da92506004918601906200020e565b508151620001f09060059060208501906200020e565b506006805460ff191660ff9290921691909117905550620002ba9050565b828054600181600116156101000203166002900490600052602060002090601f01602090048101928262000246576000855562000291565b82601f106200026157805160ff191683800117855562000291565b8280016001018555821562000291579182015b828111156200029157825182559160200191906001019062000274565b506200029f929150620002a3565b5090565b5b808211156200029f5760008155600101620002a4565b610ed180620002ca6000396000f3fe608060405234801561001057600080fd5b50600436106101215760003560e01c806379cc6790116100ad578063a457c2d711610071578063a457c2d714610356578063a9059cbb14610382578063ad00ac9c146103ae578063dd62ed3e146103b6578063f2fde38b146103e457610121565b806379cc6790146102d9578063893d20e8146103055780638da5cb5b1461032957806395d89b4114610331578063a0712d681461033957610121565b8063313ce567116100f4578063313ce567146102335780633950935114610251578063449a52f81461027d57806370a08231146102ab578063715018a6146102d157610121565b806306fdde0314610126578063095ea7b3146101a357806318160ddd146101e357806323b872dd146101fd575b600080fd5b61012e61040a565b6040805160208082528351818301528351919283929083019185019080838360005b83811015610168578181015183820152602001610150565b50505050905090810190601f1680156101955780820380516001836020036101000a031916815260200191505b509250505060405180910390f35b6101cf600480360360408110156101b957600080fd5b506001600160a01b038135169060200135610498565b604080519115158252519081900360200190f35b6101eb6104ae565b60408051918252519081900360200190f35b6101cf6004803603606081101561021357600080fd5b506001600160a01b038135811691602081013590911690604001356104b4565b61023b610560565b6040805160ff9092168252519081900360200190f35b6101cf6004803603604081101561026757600080fd5b506001600160a01b038135169060200135610569565b6102a96004803603604081101561029357600080fd5b506001600160a01b0381351690602001356105ef565b005b6101eb600480360360208110156102c157600080fd5b50356001600160a01b0316610614565b6102a961062f565b6102a9600480360360408110156102ef57600080fd5b506001600160a01b03813516906020013561068e565b61030d6106af565b604080516001600160a01b039092168252519081900360200190f35b61030d6106be565b61012e6106cd565b6101cf6004803603602081101561034f57600080fd5b5035610728565b6101cf6004803603604081101561036c57600080fd5b506001600160a01b038135169060200135610752565b6101cf6004803603604081101561039857600080fd5b506001600160a01b0381351690602001356107cf565b6101cf6107dc565b6101eb600480360360408110156103cc57600080fd5b506001600160a01b03813581169160200135166107ea565b6102a9600480360360208110156103fa57600080fd5b50356001600160a01b0316610815565b6004805460408051602060026001851615610100026000190190941693909304601f810184900484028201840190925281815292918301828280156104905780601f1061046557610100808354040283529160200191610490565b820191906000526020600020905b81548152906001019060200180831161047357829003601f168201915b505050505081565b60006104a533848461089a565b50600192915050565b60035481565b60006104c1848484610986565b6001600160a01b03841660009081526002602090815260408083203384529091529020548211156105235760405162461bcd60e51b8152600401808060200182810382526028815260200180610e086028913960400191505060405180910390fd5b6001600160a01b03841660009081526002602090815260408083203380855292529091205461055691869185900361089a565b5060019392505050565b60065460ff1681565b3360009081526002602090815260408083206001600160a01b03861684529091528120548201828110156105e4576040805162461bcd60e51b815260206004820152601b60248201527f536166654d6174683a206164646974696f6e206f766572666c6f770000000000604482015290519081900360640190fd5b61055633858361089a565b6000546001600160a01b0316331461060657600080fd5b6106108282610b42565b5050565b6001600160a01b031660009081526001602052604090205490565b6000546001600160a01b0316331461064657600080fd5b600080546040516001600160a01b03909116917ff8df31144d9c2f0f6b59d69b8b98abd5459d07f2742c4df920b25aae33c6482091a2600080546001600160a01b0319169055565b6000546001600160a01b031633146106a557600080fd5b6106108282610c57565b6000546001600160a01b031690565b6000546001600160a01b031681565b6005805460408051602060026001851615610100026000190190941693909304601f810184900484028201840190925281815292918301828280156104905780601f1061046557610100808354040283529160200191610490565b600080546001600160a01b0316331461074057600080fd5b61074a3383610b42565b506001919050565b3360009081526002602090815260408083209091528120548211156107a85760405162461bcd60e51b8152600401808060200182810382526025815260200180610e776025913960400191505060405180910390fd5b3360008181526002602090815260408083209091529020546104a59190859085900361089a565b60006104a5338484610986565b600654610100900460ff1681565b6001600160a01b03918216600090815260026020908152604080832093909416825291909152205490565b6000546001600160a01b0316331461082c57600080fd5b6001600160a01b03811661083f57600080fd5b600080546040516001600160a01b03808516939216917f8be0079c531659141344cd1fd0a4f28419497f9722a3daafe3b4186f6b6457e091a3600080546001600160a01b0319166001600160a01b0392909216919091179055565b6001600160a01b0383166108df5760405162461bcd60e51b8152600401808060200182810382526024815260200180610e536024913960400191505060405180910390fd5b6001600160a01b0382166109245760405162461bcd60e51b8152600401808060200182810382526022815260200180610d7a6022913960400191505060405180910390fd5b6001600160a01b03808416600081815260026020908152604080832094871680845294825291829020859055815185815291517f8c5be1e5ebec7d5bd14f71427d1e84f3dd0314c0f7b2291e5b200ac8c7c3b9259281900390910190a3505050565b6001600160a01b0383166109cb5760405162461bcd60e51b8152600401808060200182810382526025815260200180610d9c6025913960400191505060405180910390fd5b6001600160a01b038216610a105760405162461bcd60e51b8152600401808060200182810382526023815260200180610e306023913960400191505060405180910390fd5b6001600160a01b038316600090815260016020526040902054811115610a675760405162461bcd60e51b8152600401808060200182810382526026815260200180610dc16026913960400191505060405180910390fd5b6001600160a01b038084166000908152600160205260408082208054859003905591841681522054810181811015610ae6576040805162461bcd60e51b815260206004820152601b60248201527f536166654d6174683a206164646974696f6e206f766572666c6f770000000000604482015290519081900360640190fd5b6001600160a01b038084166000818152600160209081526040918290208590558151868152915192938816927fddf252ad1be2c89b69c2b068fc378daa952ba7f163c4a11628f55a4df523b3ef9281900390910190a350505050565b6001600160a01b038216610b9d576040805162461bcd60e51b815260206004820152601f60248201527f48524332303a206d696e7420746f20746865207a65726f206164647265737300604482015290519081900360640190fd5b600354810181811015610bf7576040805162461bcd60e51b815260206004820152601b60248201527f536166654d6174683a206164646974696f6e206f766572666c6f770000000000604482015290519081900360640190fd5b60038054830190556001600160a01b0383166000818152600160209081526040808320805487019055805186815290517fddf252ad1be2c89b69c2b068fc378daa952ba7f163c4a11628f55a4df523b3ef929181900390910190a3505050565b6001600160a01b038216610c9c5760405162461bcd60e51b8152600401808060200182810382526021815260200180610de76021913960400191505060405180910390fd5b6001600160a01b038216600090815260016020526040902054811115610cf35760405162461bcd60e51b8152600401808060200182810382526022815260200180610d586022913960400191505060405180910390fd5b6001600160a01b038216600081815260016020908152604080832080548690039055600380548690039055805185815290519293927fddf252ad1be2c89b69c2b068fc378daa952ba7f163c4a11628f55a4df523b3ef929181900390910190a3505056fe45524332303a206275726e20616d6f756e7420657863656564732062616c616e636548524332303a20617070726f766520746f20746865207a65726f206164647265737348524332303a207472616e736665722066726f6d20746865207a65726f206164647265737345524332303a207472616e7366657220616d6f756e7420657863656564732062616c616e636548524332303a206275726e2066726f6d20746865207a65726f206164647265737345524332303a207472616e7366657220616d6f756e74206578636565647320616c6c6f77616e636548524332303a207472616e7366657220746f20746865207a65726f206164647265737348524332303a20617070726f76652066726f6d20746865207a65726f206164647265737345524332303a2064656372656173656420616c6c6f77616e63652062656c6f77207a65726fa26469706673582212201bb29106a40f4162b06ffd773e1f2a5d28ea5dffb0a735ae8e6b526ca53c134564736f6c63430007060033",
  "linkReferences": {},
  "deployedLinkReferences": {}
}